:020000020000FC
:100000000FEF0AB907EF04B92898F1D0ADD001E09D
:10001000BAD0EDD02A9A21E0022E3DE0132E41E025
:10002000242E60E070E080E033240FEF402E0027A4
:100030000093000200270395009301024A944A941A
:100040004A94042DDBD01A946395002D0E3009F4E8
:100050007FC0022D003021F0002D0A95011559F0C6
:100060008230C1F08130B1F0803011F08A950CC03F
:100070001C9908C00FC000910002043009F056C05E
:100080000394EECF84E000C0762F40E0242E06C01B
:10009000882700C0882741E0242E00C0022D0030B0
:1000A00031F4002D11E0B3D000E282D00CC0002D5D
:1000B00010E0ADD000E27CD0002D015010E0A7D0C0
:1000C00000E276D000C0002D122DA1D00CEF70D030
:1000D00011E0012D9CD000910002043019F00FE7CF
:1000E00067D003C00FEF64D000C011E0012D03956D
:1000F0008ED000E25DD0002D0E94BD01003011F4D1
:100100002A9801C02A9A012D003009F097CF0FE0FC
:10011000102E00910002039507700093000211E079
:1001200000E075D000E244D0339488CF01E02BD0BA
:100130000E9433010E9449011EE00FEF0E94FE0061
:100140001A951123D1F71C9901C0F6CF59CFF4CFDE
:1001500001E019D00E946C0111E007E058D00CEFCB
:1001600027D00AE04BD0E8CF0F9303E30CD002E393
:100170000AD008E208D00CE006D001E004D006E086
:1001800002D00F9108950F93BF93B02FB07FBBB9EA
:100190002998289A22D0289823D0B02FB295B07FE2
:1001A000BBB9289A1AD028981BD0BF910F910895F7
:1001B0000F93BF93B02FB07FBBB9299A289A0DD067
:1001C00028980ED0B02FB295B07FBBB9289A05D031
:1001D000289806D0BF910F9108950000000008955F
:1001E0004F934AE5FADF4A95E9F74F9108955F93F7
:1001F00058E2F6DF5A95E9F75F9108952AE03FE06B
:100200003A95F1F72A95E1F70A95C1F708950F930A
:100210001F93212F102F203009F404C000ECB3DF0E
:10022000E6DF04C000E8AFDFE2DF00C0103031F0ED
:1002300004E1A9DFDCDF1A95D9F700C01F910F9107
:100240000895030F0295041F0295051F0295061FCE
:100250000295071F001D0295011D000F02950795CD
:1002600002950F70089510E003E0D1DF07E4A0DFEE
:1002700001E69EDF0DE69CDF05E69ADF00E298DFEF
:100280000FE696DF06E794DF05E692DF02E790DFF0
:10029000089511E003E0BBDF03E58ADF03E688DFB2
:1002A0000FE686DF02E784DF05E682DF00E280DF1B
:1002B000032D34D0032F7CDF9ADF032D2FD0022FA4
:1002C00077DF95DF032D2AD0012F72DF90DF00E268
:1002D0006FDF8DDF11E0089510E004E098DF09E59D
:1002E00067DF05E094DF0FE663DF06E090DF05E7F8
:1002F0005FDF07E08CDF00E25BDF08E088DF07E517
:1003000057DF09E084DF0FE653DF0AE080DF0EE607
:100310004FDF0BE07CDF00E24BDF08950F921F926E
:10032000102F0E94B5010E94B5013F93102F2AE0C3
:10033000239F402D0E94B501141B1F93102F0E9474
:10034000B5012AE0129F202D302F321B3F93112739
:100350002227332740E31F912F913F91140F240F41
:10036000340F44271F900F90089533272AE0121B63
:1003700010F03395FCCF132F08951F9311270550CC
:1003800008F0FDCF15E0010F055009F003C000E0B3
:0C0390001F91089515E0010F1F910895C2
:00000001FF
