:020000020000FC
:100000000FEF0AB907EF04B92898B1D060D001E02A
:100010006DD0ADD022E0022E3DE0132E41E0242E23
:1000200060E070E080E01A946395022D003021F0CA
:10003000002D0A95011519F01C9902C00BC041C092
:10004000082F053028F48395762F40E0242E05C034
:1000500080E000C041E0242E00C0022D003031F4C9
:10006000002D11E0A6D000E257D00CC0002D10E00A
:10007000A0D000E251D0002D015010E09AD000E253
:100080004BD000C0002D122D94D00CEF45D07395AD
:1000900011E0012D8ED00FEF3FD011E0012D03951F
:1000A00088D000E239D0012D003011F077D0BBCFDD
:1000B0000FE0102E11E000E07CD000E22DD06ED0D9
:1000C000B2CF0E9404010E942D0126D0FACF0F93D7
:1000D00003E30CD002E30AD008E208D00CE006D01B
:1000E00001E004D006E002D00F9108950F93BF9372
:1000F000B02FB07FBBB92998289A2FD0289830D03C
:10010000B02FB295B07FBBB9289A27D0289828D0B5
:100110002ED0BF910F9108950F93BF93B02FB07F52
:10012000BBB9299A289A19D028981AD0B02FB2951D
:10013000B07FBBB9289A11D0289812D0BF910F91E7
:1001400008950F9300E1D2DF12D000E2E5DF0FD077
:100150000CEFE2DF0CD00F9108950000000008952D
:100160004F934AE5FADF4A95E9F74F9108955F9377
:1001700058E2F6DF5A95E9F75F9108954F935F9340
:100180006F934FEF5FEF64E16A95F1F75A95D9F7F6
:100190004A95C1F76F915F914F91089525E03AE03C
:1001A00047E24A95F1F73A95E1F72A95D1F7000031
:1001B00008950F931F93212F102F203009F404C0AE
:1001C00000EC94DFD4DF04C000E890DFD0DF00C093
:1001D000103031F004E18ADFCADF1A95D9F700C088
:1001E0001F910F910895030F0295041F0295051F9B
:1001F0000295061F0295071F001D0295011D000FA5
:10020000029507950295089500E0D3DF07E484DFA7
:1002100001E0CFDF01E680DF02E0CBDF0DE67CDF2F
:1002200003E0C7DF05E678DF04E0C3DF00E274DF48
:1002300005E0BFDF0FE670DF06E0BBDF06E76CDF3F
:1002400007E0B7DF05E668DF08E0B3DF02E764DF59
:1002500009E0AFDF01E260DF0895112700E0A9DFC8
:1002600003E55ADF03E658DF0FE656DF02E754DF07
:1002700005E652DF00E250DF072F0CD08FDF032F9F
:100280004BDF8CDF022F48DF89DF012F45DF86DF60
:1002900011E008950F921F92102F0E9471010E9489
:1002A00071013F93102F2AE0239F402D0E9471017E
:1002B000141B1F93102F0E9471012AE0129F202D02
:1002C000302F321B3F9311272227332740E31F9102
:1002D0002F913F91140F240F340F44271F900F903C
:1002E000089533272AE0121B10F03395FCCF132F0B
:0202F00008956F
:00000001FF
