:020000020000FC
:100000000FEF0AB907EF04B92898E6D0A2D001E0B3
:10001000AFD0E2D02A9A21E0022E3DE0132E41E03B
:10002000242E60E070E080E033240FEF402E0027A4
:100030000093000200270395009301024A944A941A
:100040004A94042DD0D01A946395002D0E3009F4F3
:100050007DC0022D003021F0002D0A95011559F0C8
:100060008230C1F08130B1F0803011F08A950CC03F
:100070001C9908C00FC000910002043009F056C05E
:100080000394EECF84E000C0762F40E0242E06C01B
:10009000882700C0882741E0242E00C0022D0030B0
:1000A00031F4002D11E0A8D000E277D00CC0002D73
:1000B00010E0A2D000E271D0002D015010E09CD0E1
:1000C00000E26BD000C0002D122D96D00CEF65D051
:1000D00011E0012D91D000910002043019F00FE7DA
:1000E0005CD003C00FEF59D000C011E0012D039583
:1000F00083D000E252D0002D0E94C801003011F4DC
:100100002A9801C02A9A012D003009F097CF0FE0FC
:10011000102E00910002039507700093000211E079
:1001200000E06AD000E239D0339488CF0E942801E1
:100130000E9451011EE00FEF0E94F3001A95112357
:10014000D1F71C9901C0F6CF5BCFF4CF0E947401A8
:10015000F1CF0F9303E30CD002E30AD008E208D0FA
:100160000CE006D001E004D006E002D00F91089523
:100170000F93BF93B02FB07FBBB92998289A22D094
:10018000289823D0B02FB295B07FBBB9289A1AD047
:1001900028981BD0BF910F9108950F93BF93B02F54
:1001A000B07FBBB9299A289A0DD028980ED0B02FCD
:1001B000B295B07FBBB9289A05D0289806D0BF91D8
:1001C0000F9108950000000008954F934AE5FADF6B
:1001D0004A95E9F74F9108955F9358E2F6DF5A95F3
:1001E000E9F75F9108952AE03FE03A95F1F72A9503
:1001F000E1F70A95C1F708950F931F93212F102F50
:10020000203009F404C000ECB3DFE6DF04C000E8EE
:10021000AFDFE2DF00C0103031F004E1A9DFDCDF46
:100220001A95D9F700C01F910F910895030F0295F9
:10023000041F0295051F0295061F0295071F001D4A
:100240000295011D000F0295079502950F70089504
:1002500000E0D2DF07E4A1DF01E0CEDF01E69DDFB1
:1002600002E0CADF0DE699DF03E0C6DF05E695DFB1
:1002700004E0C2DF00E291DF05E0BEDF0FE68DDFC4
:1002800006E0BADF06E789DF07E0B6DF05E685DFCF
:1002900008E0B2DF02E781DF09E0AEDF01E27DDFE7
:1002A0000895112700E0A8DF03E577DF03E675DF97
:1002B0000FE673DF02E771DF05E66FDF00E26DDF57
:1002C000032D37D0032F69DF87DF032D32D0022FB4
:1002D00064DF82DF032D2DD0012F5FDF7DDF00E2A1
:1002E0005CDF7ADF11E0089500E086DF07E455DF88
:1002F00001E082DF01E651DF02E07EDF0DE64DDF47
:1003000003E07ADF05E649DF04E076DF00E245DF5F
:1003100005E072DF0FE441DF06E06EDF0EE43DDF53
:1003200007E06ADF0BE339DF08E066DF09E235DF6B
:1003300008950F921F92102F0E94C0010E94C001C9
:100340003F93102F2AE0239F402D0E94C001141BD1
:100350001F93102F0E94C0012AE0129F202D302FE2
:10036000321B3F9311272227332740E31F912F9100
:100370003F91140F240F340F44271F900F900895BE
:1003800033272AE0121B10F03395FCCF132F08956A
:100390001F931127055008F0FDCF15E0010F055000
:1003A00009F003C000E01F91089515E0010F1F91AF
:0203B0000895AE
:00000001FF
